{
  "contractName": "NullToken",
  "abi": [
    {
      "constant": true,
      "inputs": [],
      "name": "totalSupply",
      "outputs": [
        {
          "name": "",
          "type": "uint256"
        }
      ],
      "payable": false,
      "stateMutability": "view",
      "type": "function"
    },
    {
      "inputs": [
        {
          "name": "_seedAmount",
          "type": "uint256"
        }
      ],
      "payable": false,
      "stateMutability": "nonpayable",
      "type": "constructor"
    }
  ],
  "bytecode": "0x608060405234801561001057600080fd5b506040516020806100e7833981018060405281019080805190602001909291905050508060008190555050609e806100496000396000f300608060405260043610603f576000357c0100000000000000000000000000000000000000000000000000000000900463ffffffff16806318160ddd146044575b600080fd5b348015604f57600080fd5b506056606c565b6040518082815260200191505060405180910390f35b600054815600a165627a7a72305820cad4031d28df77e626d13dce193d62f530dfc0122c866edd3bcc4f288c252b9a0029",
  "source": "pragma solidity ^0.4.2;\n\ncontract NullToken {\n\n  uint256 public totalSupply;\n\n  function NullToken(uint256 _seedAmount) public {\n      totalSupply = _seedAmount;\n  }\n}\n",
  "sourcePath": "/Users/jacobgeorge/Documents/null-token/contracts/NullToken.sol",
  "compiler": {
    "name": "solc",
    "version": "0.4.23+commit.124ca40d.Emscripten.clang"
  },
  "schemaVersion": "2.0.0",
  "updatedAt": "2018-05-23T12:45:11.580Z"
}