{
  "contractName": "NullToken",
  "abi": [
    {
      "constant": true,
      "inputs": [],
      "name": "totalSupply",
      "outputs": [
        {
          "name": "",
          "type": "uint256"
        }
      ],
      "payable": false,
      "stateMutability": "view",
      "type": "function"
    },
    {
      "inputs": [],
      "payable": false,
      "stateMutability": "nonpayable",
      "type": "constructor"
    }
  ],
  "bytecode": "0x6080604052348015600f57600080fd5b506103e8600081905550609e806100276000396000f300608060405260043610603f576000357c0100000000000000000000000000000000000000000000000000000000900463ffffffff16806318160ddd146044575b600080fd5b348015604f57600080fd5b506056606c565b6040518082815260200191505060405180910390f35b600054815600a165627a7a72305820a75327a5e88cd978fa0e27c11be729ccf4a8c95b8a1124a980b7319d6d174e130029",
  "source": "pragma solidity ^0.4.2;\n\ncontract NullToken {\n\n  uint256 public totalSupply;\n\n  function NullToken() public {\n      totalSupply = 1000;\n\n  }\n}\n",
  "sourcePath": "/Users/jacobgeorge/Documents/null-token/contracts/NullToken.sol",
  "compiler": {
    "name": "solc",
    "version": "0.4.23+commit.124ca40d.Emscripten.clang"
  },
  "schemaVersion": "2.0.0",
  "updatedAt": "2018-05-23T12:16:32.053Z"
}